:020000040800F2
:10000000E845002061020008651B00087116000821
:100010009D180008BD0300084121000800000000F1
:10002000000000000000000000000000A101000826
:10003000BF03000800000000FD010008F11B0008DC
:100040007B0200087B0200087B0200087B0200089C
:100050007B0200087B0200087B0200087B0200088C
:100060007B0200087B0200087B0200087B0200087C
:100070007B0200087B0200087B0200087B0200086C
:100080007B0200087B0200087B0200087B0200085C
:100090007B0200087B0200087B0200087B0200084C
:1000A0007B0200087B0200087B0200087B0200083C
:1000B000BD1C00087B0200087B0200087B020008D0
:1000C0007B0200087B0200087B0200087B0200081C
:1000D0007B020008E12000087B0200087B02000888
:1000E0007B0200087B0200087B0200087B020008FC
:1000F0007B0200087B0200087B0200087B020008EC
:100100007B0200087B0200087B0200087B020008DB
:100110007B0200087B0200087B020008C91C000863
:100120007B0200087B0200087B0200087B020008BB
:100130007B0200087B0200087B0200087B020008AB
:100140007B0200087B0200087B0200087B0200089B
:100150007B0200087B0200087B020008ED200008FB
:100160007B0200087B0200087B0200087B0200087B
:100170007B0200087B0200087B02000800000000F0
:100180007B0200087B020008DFF810D000F004F9C1
:100190000048004711230008AFF30080E845002025
:1001A0002C4B19680868B0E8F04F80F30988BFF35A
:1001B0006F8F4FF0000080F311887047000000003F
:1001C00008480068006880F308884FF0000080F35A
:1001D000148862B661B6BFF34F8FBFF36F8F00DF35
:1001E00000BF00BF08ED00E0DFF80C00016841F43B
:1001F00070010160704700BF88ED00E0EFF30980F7
:10020000BFF36F8F134B1A681EF0100F08BF20ED5D
:10021000108A20E9F04F106009B44FF0500080F3CD
:100220001188BFF34F8FBFF36F8F02F03BFC4FF08D
:10023000000080F3118809BC19680868B0E8F04F25
:100240001EF0100F08BFB0EC108A80F30988BFF3CE
:100250006F8F704720000020EFF30580704700008B
:100260000648804706480047FEE7FEE7FEE7FEE750
:10027000FEE7FEE7FEE7FEE7FEE7FEE7AD1C00084F
:10028000890100082DE9F05F0546002092469B4653
:1002900088460646814640241BE02846414647469C
:1002A000224600F069F853465A46C01A914110D3CD
:1002B00011461846224600F050F82D1A67EB010847
:1002C0004F4622460120002100F047F817EB0009B5
:1002D0004E41201EA4F10104DFDC484631462A4687
:1002E0004346BDE8F09F40EA01039B0703D009E0C5
:1002F00008C9121F08C0042AFAD203E011F8013B12
:1003000000F8013B521EF9D27047D2B201E000F86A
:10031000012B491EFBD270470022F6E710B51346A9
:100320000A4604461946FFF7F0FF204610BD30B5D7
:100330000B46014600202022012409E021FA02F5A3
:100340009D4205D303FA02F5491B04FA02F528443D
:10035000151EA2F10102F1DC30BD202A04DB203A97
:1003600000FA02F1002070479140C2F1200320FA08
:1003700003F3194390407047202A04DB203A21FA06
:1003800002F00021704721FA02F3D040C2F12002AE
:100390009140084319467047064C074D06E0E06857
:1003A00040F0010394E8070098471034AC42F6D3BC
:1003B000FFF7EEFEC4300008E4300008FEE77047A7
:1003C00072B6FEE72DE9F0410446876D00F072F940
:1003D000064694F835000025022806D08020606586
:1003E00084F834500120BDE8F0812068016821F0D4
:1003F000160101602068416921F080014161206C93
:1004000008B9A06C20B12068016821F008010160E2
:100410002068016821F0010101600CE000F04AF958
:10042000801B052807D920206065032084F835004B
:1004300084F83450D7E720680068C007EED194F8FC
:100440005C103F208840B860012084F8350084F8B3
:1004500034500020C7E790F83510022903D08021DE
:10046000416501207047052180F83510006801685A
:1004700021F00101016000207047000070B50446C2
:1004800000F018F90546601C02D0044800780444C6
:1004900000F010F9401BA042FAD370BD10000020FC
:1004A0002DE9F84FDFF8BCA1002201250AF1040B69
:1004B00003264FF00F090BF1040E00BF0B6805FA7D
:1004C00002F42340A34270D10F7907F00307012FF4
:1004D00001D0022F16D187684FEA420806FA08FCBD
:1004E00027EA0C07D1F80CC00CFA08FC4CEA070C00
:1004F000C0F808C04768A7430C79C4F300149440BF
:100500003C4344600C79E443A4070AD0C4684FEA32
:10051000420C06FA0CF7BC438F6807FA0CF7274326
:10052000C7600C7904F00304022C12D1D40800EB4C
:10053000840CDCF820405707FF0E09FA07F824EA7C
:100540000804D1F8108008FA07F848EA0408CCF843
:10055000208004684FEA420C06FA0CF7BC430F797E
:1005600007F0030707FA0CF7274307604C6814F4F9
:10057000403F70D03C4C276847F480472760246890
:1005800022F0030704F480440094384C07EB040C79
:10059000DCF8084897074FEA177809FA08F7BC43D0
:1005A000334FB84202D1002724E054E0314FB84223
:1005B00001D101271EE0304FB84201D1022719E0D6
:1005C0002E4FB84201D1032714E02D4FB84201D17C
:1005D00004270FE02B4FB84201D105270AE02A4F2C
:1005E000B84201D1062705E0284FB84201D10727BC
:1005F00000E0082707FA08F72743CCF80878DAF86C
:1006000000405746D1F804C09C435FEACC3C00D57B
:100610001C433C60DBF800405F46D1F804C09C43BB
:100620005FEA8C3C00D51C433C60DEF80040774616
:10063000D1F804C09C435FEACC2C00D51C433C603D
:10064000084F0C373C68D1F804C09C435FEA8C2CFF
:1006500000D51C433C60521C102AFFF42FAFBDE8AC
:10066000F88F0000003C0140443802400030014057
:10067000000002400004024000080240000C02405A
:10068000001002400014024000180240001C02400A
:100690000069084000D001207047426921EA020346
:1006A0000A4043EA0241816170470AB181617047A3
:1006B0000904FBE701488068704700001000002033
:1006C0000248816802781144816070471000002060
:1006D0000B4810B5016841F400710160016841F4F4
:1006E00080610160016841F480710160032000F0C5
:1006F0008DF80F2000F006F800F03EF8002010BD45
:10070000003C024010B5014688B00022372000F0BE
:100710005DF8372000F04CF813480024016841F0E0
:1007200020010160006805A900F0200006906846DD
:1007300000F018F900F036F90C494000B0FBF1F177
:100740000C480B4A491E026040F2E732C0E903241C
:10075000C0E9011400F076FB10B1012008B010BD13
:10076000044800F0B9FBF9E74038024040420F006E
:1007700000140040C00300200C4882B0016841F41E
:1007800080410160006800F4804000900748001F2D
:10079000016841F0805101600068002200F0805043
:1007A00000900F21901E02B000F010B844380240B3
:1007B000002809DB00F01F02012191404009800060
:1007C00000F1E020C0F8001170470000F0B40E4BBB
:1007D0001B680C46C3F30223C3F10705042D00D99F
:1007E0000425191D072901D2002300E0DB1E012684
:1007F00006FA05F1491E214099409E40761E16409A
:100800003143F0BC01F0AEBC0CED00E0064900F055
:10081000070208684FF6FF03184040EA0220034A27
:1008200010430860704700000CED00E00000FA057E
:100830002DE9F0470E46050065D0DFF81481D8F8A1
:100840000000F7B200F00700B04207D288F800704D
:10085000D8F8000000F00700B04254D128683D4CA1
:10086000810712D5400703D5206840F4E05020608E
:100870002878000703D5206840F460402060206895
:10088000A96820F0F000084320602878C0072DD028
:10089000304968680839012812D0022813D003288B
:1008A00011D00968890700292DDA216821F0030198
:1008B00001432160FFF7FEFE814641F2883A0EE0D7
:1008C00009688903EFE709688901ECE7FFF7F2FEA1
:1008D000A0EB0901514502D90320BDE8F08720684B
:1008E000696800F00C00B0EB810FEFD1D8F8001070
:1008F000404601F00701B14207D90770006800F0D7
:100900000700B04201D00120E7E72878400705D56D
:100910002068E96820F4E050084320602878000748
:1009200006D52068296920F4604040EAC1002060B3
:1009300000F058F82168084AC1F30311515CC8401F
:100940000649086006480068FFF7DCFE0020C4E79F
:10095000003C024008380240882E00081C0000209D
:10096000140000200F2202600C4A136803F00303F6
:100970004360136803F0F0038360136803F4E053EB
:10098000C36012684FF4E05303EAD20202610448E4
:10099000006800F007000860704700000838024057
:1009A000003C02400448054900680968044AC1F354
:1009B0008221515CC84070471C000020083802406A
:1009C000982E00080448054900680968044AC1F3E4
:1009D0004231515CC84070471C000020083802407A
:1009E000982E0008154810B5006810F00C02144845
:1009F00013D04110042A0FD0082A0ED10F4C241F07
:100A00002268236802F03F025B0207D52068C0F32A
:100A10008810A0FB010106E0084610BD2168C1F363
:100A20008811A1FB00010023FFF72CFC2168C1F312
:100A30000141491C4900B0FBF1F010BD08380240EB
:100A40000024F4002DE9F84F04006ED02078DFF880
:100A50004C93C007A9F104054AD009F104000168CC
:100A6000C1F38101012908D00068C0F38100022888
:100A70000AD1D9F80000400206D52868800337D58E
:100A800060680028E1D033E06068B0F5803F10D0A6
:100A9000B0F5A02F286810D020F480302860286896
:100AA00020F4802028606068A8B1FFF703FE0646A6
:100AB0000DE0286840F48030F4E740F4802028609E
:100AC000F7E700BFFFF7F6FD801B642873D828689E
:100AD0008003F7D50CE0FFF7EDFD064605E000BF0B
:100AE000FFF7E8FD801B6428F0D828688003F7D45E
:100AF0002078DFF8AC8280074FF0000A3ED5A74887
:100B0000001D016811F00C0F08D00068C0F38100CF
:100B100002280BD1D9F80000400207D428688007CA
:100B200016D5E068012800D112E033E1E068B8B1E1
:100B30000120C8F80000FFF7BDFD064605E000BF34
:100B4000FFF7B8FD801B0228C0D828688007F7D5BA
:100B50002868216920F0F80040EAC10028600DE013
:100B6000C8F800A0FFF7A6FD064604E0FFF7A2FDC7
:100B7000801B02281FD828688007F7D42078000738
:100B800022D5864F87486169703771B101210160B4
:100B9000FFF790FD064604E0FFF78CFD801B02285E
:100BA00009D838688007F7D50EE0C0F800A0FFF735
:100BB00081FD064605E082E0FFF77CFD801B0228F0
:100BC0007DD838688007F7D42078400768D5DFF8EB
:100BD000CCB100270BF13C0BDBF80000C0000BD4BC
:100BE000DBF8001041F08051CBF80010DBF800007A
:100BF000012700F0805000906B4E3068C00510D483
:100C0000306840F480703060FFF754FD009005E0DC
:100C1000FFF750FD0099401A022850D83068C005EF
:100C2000F6D55E4EA0686C3601280FD005283068D6
:100C300010D020F001003060306820F004003060F7
:100C4000A068B8B1FFF736FD00900FE0306840F0C3
:100C50000100F4E740F004003060F7E7FFF72AFDF9
:100C60000099411A41F28830814266D83068800785
:100C7000F4D50EE0FFF71EFD009007E0FFF71AFD28
:100C80000099411A41F28830814256D83068800775
:100C9000F4D42FB1DBF8001021F08051CBF8001014
:100CA000A069C8B33D49091D0968C1F38101022942
:100CB0004AD00228504607D0C8F8600000E03CE067
:100CC000FFF7F8FC04463BE04746C8F86000FFF732
:100CD000F1FC064605E000BFFFF7ECFC801B022894
:100CE0002BD828688001F7D4D4E907010843A16A0A
:100CF0002E4A490802EB0141626A41EA8211084327
:100D000094F82C1040EA0161C9F8001001203866FF
:100D1000FFF7D0FC044606E03EE000BFFFF7CAFC48
:100D2000001B022809D828688001F7D534E000BFED
:100D3000FFF7C0FC001B022802D90320BDE8F88F92
:100D400028688001F4D427E00128F7D0D9F8000002
:100D5000E26900F4800191421CD1226A00F03F0157
:100D6000914217D147F6C071626A0140B1EB821F10
:100D700010D1A26A4FF0FF3300F4403103EB52026E
:100D8000B1EB024F06D194F82C1000F07060B0EB7C
:100D9000016F01D00120D1E70020CFE704380240E5
:100DA00000004742800E4742007000400000FFFFF5
:100DB0007047704770B590F83C20012A32D001246A
:100DC00080F83C40022280F83D2003685A689D6804
:100DD00022F070060A6832435A60134B02689A4246
:100DE00014D0B2F1804F11D0104B9A420ED0104B5C
:100DF0009A420BD00F4B9A4208D00F4B9A4205D023
:100E00000E4B9A4202D00E4B9A4204D1496825F00B
:100E100080031943916080F83D40002180F83C1028
:100E2000084670BD022070BD000001400004004073
:100E300000080040000C0040000401400040014058
:100E40000018004010B5040003D094F83D0010B124
:100E500007E0012010BD002084F83C00204600F08F
:100E60001FF8022084F83D00211D206800F032FFA9
:100E7000012084F8460084F83E0084F83F0084F89E
:100E8000400084F8410084F8420084F8430084F86C
:100E9000440084F8450084F83D00002010BD0000A7
:100EA00008B50068B0F1804F12D10A48016841F0DE
:100EB000010101600068002200F00100009005219E
:100EC0001C20FFF783FCBDE808401C20FFF770BC26
:100ED00008BD00004038024090F83D10012901D0C3
:100EE00001207047022180F83D100168CA6842F075
:100EF0000102CA6000681149884214D0B0F1804FE5
:100F000011D00F4988420ED00E4988420BD00E49AD
:100F1000884208D00D49884205D00D49884202D048
:100F20000C49884204D1816801F00701062903D0E9
:100F3000016841F00101016000207047000001409C
:100F40000004004000080040000C00400004014084
:100F5000004001400018004070B5044690F83C0085
:100F60000025012817D0012684F83C60022084F86F
:100F70003D002068826822F0770222F47F4282607E
:100F80000868502838D00DDC20284FD005DC90B3FD
:100F9000102811D14AE0022070BD302846D04028E8
:100FA0000AD13BE060282FD070280DD0B0F5805FCB
:100FB00003D0B0F5005F12D0012584F83D60002019
:100FC00084F83C00284670BDCB68D1E90121206837
:100FD00000F0E4FE2068816841F0770109E0CB6809
:100FE000D1E90121206800F0D9FE2068816841F430
:100FF00080418160E1E719E0CA684968206800F033
:10100000DFFE5021206806E0CA684968206800F0C9
:10101000E8FE6021206800F0CBFECEE7CA68496890
:10102000206800F0CDFE40212068F4E722680146E8
:101030001046F0E7704770B50446006801694FF04C
:101040000005C943890715D4C168C943890711D46C
:10105000E91E016101202077206880698007204611
:1010600002D0FFF7E7FF04E000F098F8204600F018
:1010700096F8257720680169C943490717D4C168E4
:10108000C943490713D46FF004010161022020779E
:101090002068806910F4407F204602D0FFF7CAFF25
:1010A00004E000F07BF8204600F079F8257720680E
:1010B0000169C943090716D4C168C943090712D495
:1010C0006FF008010161042020772068C069800763
:1010D000204602D0FFF7AEFF04E000F05FF82046A4
:1010E00000F05DF8257720680169C943C90617D467
:1010F000C168C943C90613D46FF01001016108200B
:1011000020772068C06910F4407F204602D0FFF7A6
:1011100091FF04E000F042F8204600F040F8257707
:1011200020680169C943C90708D1C168C943C90713
:1011300004D1891E0161204600F032F8206801695F
:10114000C943090609D4C168C943090605D46FF02B
:10115000800101612046FFF72BFE20680169C94329
:10116000490609D4C168C943490605D46FF0400156
:101170000161204600F044F820680169C9438906EE
:101180000BD4C168C943890607D46FF020010161FF
:101190002046BDE87040FFF70CBE70BD7047704739
:1011A00010B5044600681349884201D1FFF788FA58
:1011B00011492068096888421BD11048012290F823
:1011C000671061B190F86510491CC9B280F86510CC
:1011D000082904D3002180F8671080F86820D0F82F
:1011E000E410491CC0F8E410B1F57A7F01DD80F805
:1011F000E82010BD00140040F0020020F84000205C
:101200007047704770470000F8B5016804460868E9
:10121000CA684B6910F00F0F4FF0000559D003F06A
:10122000010602F49077374365D0C10705D0D10598
:1012300003D5216C41F001012164410705D5D9078F
:1012400003D0216C41F002012164810705D5D90743
:1012500003D0216C41F004012164010707D502F09D
:101260002001314303D0216C41F008012164216C3D
:1012700000293AD0800604D5900602D5204600F019
:10128000F1FD20684069216CC0F38010090700D48B
:1012900060B3204600F0BFFD20684069400621D5BC
:1012A0002068143050E8001F21F0400140E800128F
:1012B000002AF5D1A06BA8B16C490165A06BFFF7BE
:1012C000CAF8002811D0A06B016D01B0BDE8F04054
:1012D000084783060FD593060DD52046BDE8F84094
:1012E00000F0C0BD2046FFF78DFFF8BD2046FFF798
:1012F00089FF2564F8BD266B2023012E79D1C6060F
:1013000077D5D60675D508684868009048694006C4
:1013100040D5A16B086840680004000CEAD0A28D9B
:101320008242E7D9E085C869B0F5807F2DD020687A
:101330000C3050E8001F21F4807140E80012002AB0
:10134000F5D12068143050E8001F21F0010140E879
:101350000012002AF5D12068143050E8001F21F057
:10136000400140E80012002AF5D184F83E302563A0
:1013700020680C3050E8001F21F0100140E80012F6
:10138000002AF5D1A06BFFF71DF8A08DE18D401A62
:1013900081B229E0A08DE18D401A81B2E08D002854
:1013A000A8D00029A6D020680C3050E8002F22F4E5
:1013B000907240E80026002EF5D12068143050E8E5
:1013C000002F22F0010240E80026002EF5D184F81B
:1013D0003E30256320680C3050E8002F22F01002C8
:1013E00040E80023002BF5D12046FFF70AFFF8BDA7
:1013F000FFE705062BD5150629D594F83D002128D1
:10140000F5D1A068B0F5805F01D12069B0B1206A44
:10141000411C2162216800784860E08C401E000475
:10142000000CE084E3D12068C16821F08001C16034
:101430002068C16841F04001C160D8E7206A008897
:10144000C0F308004860206A801C2062E5E740067F
:10145000CDD55006CBD5CA68204622F04002CA60DE
:1014600084F83D3000F003F9C1E70000071E0008D2
:1014700070B5040004D094F83D00002510B106E0DA
:10148000012070BD84F83C50204600F023F8242051
:1014900084F83D002068C16821F40051C1602046F5
:1014A00000F040FD2068016921F49041016120684D
:1014B000416921F02A0141612068C16841F400516D
:1014C000C1602564202084F83D0084F83E0000209F
:1014D00070BD000070B586B0044614216846FEF762
:1014E0001BFF2748254E2568002425491438022271
:1014F0000323B5421BD10D6845F010050D60096846
:1015000001F010010591016841F0010101600068DE
:10151000694600F00100059058028DE8150007208B
:10152000CDE903301748FEF7BBFF06B070BD164E7D
:10153000B542FAD10D6845F020050D60096801F04B
:1015400020010591016841F00401016000686946CD
:1015500000F004000590C0208DE815000820CDE9BA
:1015600003300A48FEF79CFF002206214720FFF7C0
:101570002DF94720FFF71CF9D7E7000000100140C4
:1015800044380240000002400014014000080240BC
:1015900090F83E30202B0ED159B152B190F83C302A
:1015A000012B08D0012380F83C300023036300F0B6
:1015B0003FBD012070470220704770472DE9F84376
:1015C000044690F83D001F4616460D4620284CD193
:1015D000C5B1BEB194F83C00012846D0012084F882
:1015E0003C004FF00008C4F84080212084F83D0002
:1015F000FFF760F8A6848146E684A068B0F5805FB6
:1016000003D004E00120BDE8F883206928B12E460C
:101610005FF0000584F83C800EE00026FAE78021A8
:10162000204600F020FDA0B9AEB116F8010B2168EC
:101630004860E08C401EE084E08C4B464FF0000296
:1016400000970028EBD14FF04001204600F00BFD41
:1016500030B10320D7E735F8020BC0F30800E6E706
:10166000202084F83D000020CDE70220CBE7704722
:10167000FEE7000010B596B01C2211496846FEF73F
:1016800032FE0021684600F08DFE0E4C0C491C22F3
:1016900020601C3107A8FEF726FE002107A800F0F5
:1016A00081FE074960601C2238310EA8FEF71BFE40
:1016B00000210EA800F076FEA06016B010BD00005C
:1016C000342E0008000000202DE9F04786B01421D8
:1016D0006846FEF721FE38484FF0000A016841F0E5
:1016E00080010160016801F080010591016841F00D
:1016F00010010160016801F010010591016841F0DD
:1017000002010160016801F002010591016841F0E8
:1017100004010160016801F004010591016841F0D4
:1017200001010160016801F001010591016841F0CA
:10173000080101600068214F00F008004FF4406488
:101740000590012221463846FEF7AFFFDFF8708092
:101750003E15002231464046FEF7A7FFDFF86490B1
:10176000012203214846FEF7A0FF00940124022530
:10177000694638460194CDE90245FEF791FE009690
:10178000CDE90145694640460395FEF789FEE00232
:10179000CDE9000A694602944046FEF781FE032027
:1017A000CDE9000469464846CDE90245FEF778FEDA
:1017B00006B0BDE8F087000030380240001002405B
:1017C00000040240000C024010B586B00024164808
:1017D000009401940294039404944FF08041059482
:1017E00001604721C0E9011440F2E731C0E9031468
:1017F0008461FFF727FB08B1FEF7E2FD4FF480504C
:10180000009069460848FFF7A7FB08B1FEF7D8FD2E
:10181000049404A904480594FFF7CCFA002801D0E9
:10182000FEF7CEFD06B010BDF00200200C4810B54A
:101830000A4901604FF4E1314160002181600C22CE
:10184000C160C0E904128161C161FFF711FE002887
:1018500003D0BDE81040FEF7B3BD10BD001001403D
:10186000380300200C4810B50A4901604FF4E131FB
:101870004160002181600C22C160C0E904128161D5
:10188000C161FFF7F5FD002803D0BDE81040FEF769
:1018900097BD10BD001401407C030020FEE700004E
:1018A00070B5094DFF22134605F5807606E000BFAE
:1018B00010F8014B54402A5D5A40335D491E89B2ED
:1018C000F6D243EA022070BDA02E000810B51F4CCE
:1018D00094F86800002837D01DA000F033FC94F87D
:1018E0006600801E81B2601CFFF7DAFF94F8661074
:1018F000621E635C895C03EB012189B288421FD1BF
:1019000017A000F01FFC60782178884218D1A078D9
:10191000112815D2DFE800F01414140914140F1460
:101920001414141414141414120011A000F00AFC5E
:1019300000F074F804E000F0C1F801E000F022F8D3
:10194000002004F8660FA07010BD0000F8400020D1
:10195000CAD5B5BDC1CBCAFDBEDD0D0A0000000071
:10196000435243D0A3D1E9B3C9B9A60D0A00000080
:10197000D6B4D0D0B5BDC1CBD7B7D2BBB2BF0D0A9C
:10198000000000002DE9F0472249DFF88CC08946AD
:101990000D79CB788A7905EB03204E7984B202EB7E
:1019A000062087B200200CE009EB400191F8098085
:1019B000097A08EB012104EB0008401C2CF81810F0
:1019C00080B2B842F0D399F8010089F8690099F81B
:1019D000020089F86A0089F86B3089F86C500D486C
:1019E00089F86D6089F86E200621693009F151048B
:1019F000FFF756FF010AA177E0770025513C6019F7
:101A000090F8690000F0A4F86D1CADB2082DF6D373
:101A1000BDE8F087F8400020880000202DE9F04163
:101A2000244D0324244F2879E97800EB012086B265
:101A3000A879697900EB012082B2287885F86900DD
:101A40002946032081F86A00500081F86B000020CD
:101A500010E0311805EB040C37F81130641C190A3A
:101A60008CF86910E1B26C18491C84F86930401C8C
:101A7000CCB2C0B29042ECD30E4821466930FFF799
:101A80000FFF2A19010A82F86910641CE1B26A1872
:101A9000491C82F86900CEB2002406E0281990F8AB
:101AA000690000F055F8641CE4B2B442F6D3BDE816
:101AB000F0810000F84000208800002070B51C4C28
:101AC00023462079E178254600EB012082B2A079F7
:101AD000617900EB0120174921F81200217884F880
:101AE0006910062183F86A10130A85F86B302346C3
:101AF00083F86C20020A83F86D201A4682F86E0083
:101B000002F16900FFF7CCFE2246010A82F86F104D
:101B10001146082681F870000025601990F86900C8
:101B200000F016F86D1CADB2B542F6D370BD0000E2
:101B3000F8400020880000200448012100220170A4
:101B400080F8672080F8E11070470000F84000201E
:101B500001B5FF23012269460148FFF72FFD08BDAB
:101B60007C030020FEE7000070B50D4D4FF40064CB
:101B700021462846FEF78CFD002810D13220FEF7C2
:101B80007DFC21462846FEF783FD0028F9D0284633
:101B9000BDE8704000224FF48061FEF786BD70BD45
:101BA00000040240044C00BF94F8E8000028FBD079
:101BB000FFF78CFEF8E70000F8400020084C4FF4D7
:101BC0008065E6144FF4FA7729462046FEF765FD56
:101BD00031462046FEF761FD384600F0D7FBF3E7BB
:101BE00000100240FFF7C0FF142000F0CFFBF9E720
:101BF00010B5502080F31188BFF34F8FBFF36F8F64
:101C000001F050F818B104494FF0805008600020EE
:101C100080F3118810BD000004ED00E030B593B0F2
:101C200030216846FEF778FB14210CA8FEF774FB00
:101C30001C480025016841F080510160006800F0F7
:101C4000805011901848016841F48041016000689B
:101C5000022400F4804011900120009000040190C3
:101C60008001CDE9064008AA0420482182E813003B
:101C70000B906846FEF7E6FE08B172B6FEE70CA9C7
:101C80000F2081E831004FF48050CDE90F0502218B
:101C90000CA8FEF7CDFD002801D072B6FEE713B008
:101CA00030BD00004038024000700040024801682A
:101CB00041F470010160704788ED00E00148FFF7D2
:101CC000BAB90000F00200200148FFF7B4B90000E3
:101CD000C0030020F0B50268254C264D264E274F44
:101CE000274B4FF0804CA04209D0604507D0A84256
:101CF00005D0B04203D0B84201D0984204D122F0BE
:101D0000700E4A6842EA0E02A0421BD0604519D00C
:101D1000A84217D0B04215D0B84213D0984211D083
:101D2000184DA8420ED0184DA8420BD0174DA8420E
:101D300008D0174DA84205D0164DA84202D0164D26
:101D4000A84203D122F44075CA682A434D6922F0A3
:101D500080022A4302608A68C2620A688262A042E4
:101D600001D0984201D10969016301214161F0BDAF
:101D7000000001400004004000080040000C00404A
:101D8000000401400040014000440140004801407F
:101D900000180040001C00400020004010B584687E
:101DA00042EA032224F47F440A432243826010BDA6
:101DB000826822F070020A4342F007018160704796
:101DC00010B5036A046A24F001040462846924F0F3
:101DD000F00444EA021423F00A020A438461026216
:101DE00010BD10B5036A23F0100303628369046A0F
:101DF00023F4704343EA023224F0A00343EA0111C2
:101E00008261016210BD10B5806B0021C185C18463
:101E1000FFF7F8F910BD01680C3151E8002F22F4EA
:101E2000907241E80023002BF5D10168143151E88C
:101E3000002F22F0010241E80023002BF5D1016BB5
:101E4000012909D101680C3151E8002F22F010025C
:101E500041E80023002BF5D1202180F83E1000211D
:101E60000163704708B590F83E10222901D0022086
:101E700008BD82684FF480539A4201D1016921B1B3
:101E8000816A9A421BD04AB10AE00268816A5268AC
:101E9000C2F308020A80816A891C08E0026972B1F3
:101EA0000268526802F07F020A70816A491C8162EE
:101EB000C18D491E0904090CC18503D019E00268CF
:101EC0005268F1E70168CA6822F02002CA6001681E
:101ED000CA6822F48072CA6001684A6922F001026D
:101EE0004A61202180F83E10016B012903D0FFF7E1
:101EF00064FB002008BD0021016301680C3151E83A
:101F0000002F22F0100241E80023002BF5D10168D8
:101F10000A68D20602D50A6849680091818DFFF7E8
:101F200070F9E6E770B5044600680169E26821F4DB
:101F30004051114301612169A068E2690843616968
:101F4000114308432168CA6849F20C639A4302436B
:101F5000CA6020684169A26921F44071114341615E
:101F600031492068884202D03049884202D1FEF7C8
:101F700029FD01E0FEF716FDE26900231921642521
:101F80003226B2F5004F626828D0A0FB0101930F02
:101F90009200FEF777F90146B0FBF5F06FF01802FA
:101FA000504301EB800006EB0010B0FBF5F000F0B1
:101FB000F002B1FBF5F002EB0012B1FBF5F06FF0AF
:101FC0001803584301EB800006EB0010B0FBF5F05E
:101FD00000F00F0021681044886070BDA0FB010173
:101FE00092185B41FEF74EF90146B0FBF5F0020195
:101FF000B1FBF5F06FF01803584301EB800006EBDE
:10200000C000B0FBF5F000F0F80002EB4002B1FBBD
:10201000F5F0584301EB800006EBC000B0FBF5F093
:1020200000F00700D6E70000001001400014014056
:1020300081628285C28500210164222280F83E20CF
:1020400080F83C100168CA6842F48072CA60016876
:102050004A6942F001024A610068C16841F020010A
:10206000C160002070472DE9F041984617460E46A2
:102070000446069D27E0681C25D02DB1FEF71AFB0B
:10208000A0EB0800A8421ED920680C3050E8001FC1
:1020900021F4D07140E80012002AF5D120681430F4
:1020A00050E8001F21F0010140E80012002AF5D19C
:1020B000202084F83D0084F83E00002084F83C0095
:1020C0000320BDE8F0812068006836EA000004D0F3
:1020D0000020B842CFD00020F3E70120F9E700004C
:1020E0000148FFF791B800003803002010B51148EF
:1020F000FFF78AF8104890F86810012919D00F49A5
:1021000090F866300A78411C5A5490F86610002204
:10211000491CC9B280F8661080F86520012901D1F8
:1021200080F86710BDE81040012204490148FFF71C
:102130002FBA10BD7C030020F8400020980000203A
:10214000FEE700000FB4054B10B503A9044A02983E
:1021500000F028F810BC5DF814FB0000F92200081C
:102160000C0000200907090E002804DB00F1E02024
:1021700080F80014704700F00F0000F1E02080F8B4
:10218000141D704702E008C8121F08C1002AFAD1C6
:1021900070477047002001E001C1121F002AFBD1E7
:1021A000704700002DE9FF4F89B09B46044600258B
:1021B00006E025280BD05A460B999047641C6D1CED
:1021C00020780028F5D10DB02846BDE8F08F002713
:1021D000B8460122474900E0074314F8013F203B7D
:1021E00002FA03F00842F7D120782E2819D114F80A
:1021F000010F47F004072A280ED06FF02F02207835
:10220000A0F1300109290CD808EB880102EB41014B
:1022100000EB0108641CF2E70A98641C50F8048B78
:102220000A9020780028CED0642808D0692806D0EB
:1022300075281ED05A460B9990476D1C58E00A9994
:102240004FF00A0901C90A91002802DA40422D2103
:1022500002E0390504D52B218DF82010012103E07F
:10226000F90704D02021F7E78A4608AE0DE00021E7
:10227000FAE70A994FF00A0901C90A91F7E74946B6
:10228000FEF755F8303106F8011D0028F7D1ADEB07
:10229000060000F12009780701D44FF00108C84575
:1022A00002DDA8EB090000E000208046002706E0E0
:1022B00008A85A46C05D0B9990476D1C7F1C574576
:1022C000F6DB04E030205A460B9990476D1CB8F1BC
:1022D0000001A8F10108F5DC05E016F8010B5A46EB
:1022E0000B9990476D1CB9F10001A9F10109F4DCCB
:1022F000641C65E70928010013B540F6FF7301224D
:1023000069460248FFF75AF900981CBD38030020BF
:10231000FEF7DEF9FFF782FCFFF7D6F9FFF7A2FA26
:10232000FFF752FAFFF782FA012291020C48FEF7FA
:10233000BCF94FF4FA70FEF7A1F8FFF7FDFB09486E
:10234000FEF7CAFD08A0FFF7FDFE01220A490B486F
:10235000FFF71EF9FFF78EF900F01FF8FEE7000007
:1023600000040240F002002052533438355F5445D7
:1023700053545F30310D0A00980000207C03002088
:1023800001460020842900D0C81C704710B500B950
:10239000012000F023FB002010BD10B500F044FB2D
:1023A000002010BD7FB50D4604464169B0F9080014
:1023B00081B1A16971B1FFF7E3FFD4E905128DE89E
:1023C0000700D4E900102B46226900F040FC03907E
:1023D00004B070BDFFF7D4FF03A9CDE90001208A46
:1023E0002B4682B2D4E9001000F004FC012801D091
:1023F0000020EDE70398EBE72DE9F041184C0F467C
:102400000546E6682068001D00F020FA38B920680B
:1024100090F82C1001208840216981432161681CBB
:1024200007D137B12168BDE8F0410E48091D00F021
:1024300051BA20683544B5424560216805D2A06B89
:10244000BDE8F041091D00F02DBA606B091D00F0D8
:1024500029FAA06A854200D2A562BDE8F081000099
:1024600020000020E40400202DE9F041054600F0A2
:102470003DFA2E4CA068401CA06020682C4F10B183
:10248000606940B32DE02560A068012829D10026AD
:1024900006EB860007EB800000F0F6F9761C072EAD
:1024A000F6D323488C3000F0EFF92148A03000F03B
:1024B000EBF91F48B43000F0E7F91D48C83000F0D0
:1024C000E3F91B48DC3000F0DFF919488C30606319
:1024D0001430A06305E02068E96AC06A884200D829
:1024E0002560606A401C6062E96A012022698840B8
:1024F0001043206101EB810007EB8000291D00F0F3
:10250000E9F900F013FA606900280CD02068E96A44
:10251000C06A884207D207494FF080500860BFF375
:102520004F8FBFF36F8FBDE8F081000020000020C7
:102530000804002004ED00E010B5044690F85100B6
:1025400058B101280CD002280FD0502080F31188F8
:10255000BFF34F8FBFF36F8FFEE7206B00F0FAF9E8
:102560002046BDE8104000F0F5B910BD10484FF40A
:102570007051420706D0C01D0D4920F00700411AD6
:10258000C1F570510B4A00230144C2E90003083928
:10259000183A21F0070111604B600B600B1AC0E97B
:1025A000001393604FF0004053605061704700008B
:1025B000F804002074000020144E154CA6F1C80742
:1025C0004FF08058DFF84C9012E000BF00F08EF919
:1025D000F068C568281D00F039F9A068401EA060A9
:1025E0006068401E606000F0A1F92846FFF7A4FF74
:1025F00060680028EAD138680128F9D9C9F8008054
:10260000BFF34F8FBFF36F8FF2E70000D0040020BD
:102610002000002004ED00E02DE9F0479A46DDE9B6
:10262000098481466FF00303206B03EB82021044A0
:10263000089E20F00707780707D0502080F3118804
:10264000BFF34F8FBFF36F8FFEE7002561B100200E
:1026500023180A5C83F834200A5C12B1401C10284D
:10266000F6D384F8435001E084F83450072E00D3A9
:102670000626E662C4E91165201D00F010F904F198
:10268000180000F00CF92461C6F107006462A06133
:10269000E56484F8505052464946384600F0C0F888
:1026A0002060B8F1000F01D0C8F80040BDE8F08705
:1026B00030B5114900E011460A688242FBD34B68ED
:1026C0005C18844203D14068184448600846436857
:1026D0001C18944209D1084C183C2468A24209D025
:1026E00052681A4442600A6812680260814200D04F
:1026F000086030BD0460F9E7740000200648416BB3
:10270000096829B1416BC968C96849688162704725
:102710004FF0FF31FAE70000200000200848406831
:10272000401C4FF0500080F3118804D0BFF34F8F4E
:10273000BFF36F8FFEE7BFF34F8FBFF36F8FFEE7DF
:102740007C0000202DE9F0410546002700F0A2F9A9
:10275000324E306808B9FFF709FF706905424ED163
:10276000C5B3083568070ED005F00700C0F10800B2
:102770000544680707D0502080F31188BFF34F8FBE
:10278000BFF36F8FFEE72DB37068854237D82348BB
:10279000183001460C6801E020460C466168A942E9
:1027A00002D221680029F7D131688C4227D007680E
:1027B0002168016060680837411B10290FD9601932
:1027C000420708D0502080F31188BFF34F8FBFF32A
:1027D0006F8FFEE713E041606560FFF769FF616896
:1027E0007068401A7060B268904200D2B060706940
:1027F00001430020C4E90001F068401CF06000F0D3
:10280000B7FA780707D0502080F31188BFF34F8FB5
:10281000BFF36F8FFEE73846BDE8F0815C00002013
:1028200010B5031F4FF080741C601B1F21F00101C5
:102830001960191F044B0B6014390A60091F6FF0EF
:10284000020244380A6010BD1D270008D0E9013299
:1028500001699A60D0E901235A604A68824201D135
:1028600082684A60002202610868401E08600868A9
:1028700070470000034B036003F1540008608020A0
:10288000106070479C00002000F108014FF0FF32FB
:10289000C0E90112C160016100210160704700219F
:1028A0000161704730B50B685A1C02D000F1080274
:1028B00002E0026904E02246546825689D42FAD984
:1028C00053684B6099608A60516008610168491CD7
:1028D000016030BD42684A6093688B6093685960BC
:1028E000916008610168491C01607047502080F3C5
:1028F0001188BFF34F8FBFF36F8F0A494868401CA0
:10290000486001280CD10848006810F0FF0F07D07C
:10291000502080F31188BFF34F8FBFF36F8FFEE716
:10292000704700007C00002004ED00E00849486882
:1029300028B1401E486001D180F3118870475020B3
:1029400080F31188BFF34F8FBFF36F8FFEE7000056
:102950007C00002070B500282AD0164DA0F1080494
:1029600060686969084207D1502080F31188BFF37D
:102970004F8FBFF36F8FFEE722683AB1502080F38C
:102980001188BFF34F8FBFF36F8FFEE788436060FE
:1029900000F080F860686968084468602046FFF7C6
:1029A00087FE2869401C2861BDE8704000F0E0B94E
:1029B00070BD00005C0000204FF0E02000210161AC
:1029C000816105494FF47A720968B1FBF2F1491E41
:1029D00041610721016170471C00002010B5020011
:1029E00014D00F48006B38B1502080F31188BFF32A
:1029F0004F8FBFF36F8FFEE700F04CF800211046B9
:102A0000FFF7FAFC00F0B4F9002807D105494FF0B0
:102A100080500860BFF34F8FBFF36F8F10BD000071
:102A20002000002004ED00E010B586B000240394DF
:102A300005AA04A903A80494FFF71CFFDDE903011C
:102A40000094CDE9011000230EA11048059A00F072
:102A5000FEF80F490028C86211D0502080F3118879
:102A6000BFF34F8FBFF36F8F4FF0FF3088620120AD
:102A70004861CC6006B0BDE8104000F041B806B037
:102A800010BD000049444C4500000000B925000875
:102A9000200000200248016B491C016370470000C0
:102AA000200000201448016B11B10121C161704761
:102AB0000021C1610169B1FA81F1C1F11F0101EB8E
:102AC00081020E4951F822306BB101EB820101F114
:102AD00008034A6852684A609A4201D152684A60C3
:102AE000D16801607047502080F31188BFF34F8F89
:102AF000BFF36F8FFEE700002000002008040020D5
:102B00001CB537480168374A914207D1502080F3FD
:102B10001188BFF34F8FBFF36F8FFEE70068314915
:102B2000491E884207D1502080F31188BFF34F8F90
:102B3000BFF36F8FFEE72C4908780190FF200870E3
:102B400008788DF800009DF800009DF8002000F046
:102B5000F000904207D0502080F31188BFF34F8FD0
:102B6000BFF36F8FFEE79DF80000204C00F050008F
:102B700020700720A06005E09DF8002052008DF82D
:102B80000020401E9DF800201206F5D4A060032806
:102B900007D0502080F31188BFF34F8FBFF36F8FA2
:102BA000FEE74FF44070A060019808700C48203098
:102BB000016841F470010160016841F070410160F9
:102BC000FFF7FAFE00206060FDF70EFB0848016881
:102BD00041F040410160FDF7F3FA00201CBD000008
:102BE00000ED00E071C20F4100E400E07C00002035
:102BF00034EF00E02DE9FF5F8346DDE90E8799465B
:102C000016468A469000FFF79DFD05001CD0542013
:102C1000FFF798FD040014D00020256384F85100CC
:102C2000CDE90240CDE900874B4632465146584631
:102C3000FFF7F2FC2046FFF717FC012004B0BDE8C7
:102C4000F09F2846FFF786FE4FF0FF30F6E7F0B51D
:102C500085B0DDE90B640A9DA6B1DCB1542700976D
:102C60002663022684F85160002604AFCDE90246AF
:102C7000CDE90057FFF7D0FC2046FFF7F5FB04989D
:102C800005B0F0BD502080F31188BFF34F8FBFF324
:102C90006F8FFEE7502080F31188BFF34F8FBFF393
:102CA0006F8FFEE72DE9F0412F4C0026206B28B1F5
:102CB000A069401CA0613046BDE8F081E5686D1C4C
:102CC000E56013D1606B006838B1502080F3118843
:102CD000BFF34F8FBFF36F8FFEE7606BA16B616334
:102CE000A063206A401C2062FFF708FDA06ADFF89D
:102CF0007C80854209D3606B0068A0B1606BC068BE
:102D0000C7687868854211D2A0622068C06A00EB6B
:102D1000800158F82100012800D90126E069002827
:102D2000C9D00126C7E74FF0FF30EDE7381DFFF7A8
:102D30008DFDB86A18B107F11800FFF787FDF96A31
:102D40000120226988401043206101EB810108EBDA
:102D50008100391DFFF7BEFDF86A2168C96A884203
:102D6000C9D30126C7E70000200000200804002086
:102D70002DE9F0472C4D00242746286B38B1FFF78A
:102D8000B5FD286B401E2863286B40B146E05020FB
:102D900080F31188BFF34F8FBFF36F8FFEE7A968F1
:102DA000224E0120D1B3A6F1B40980463068E8B1C3
:102DB000F068C46804F11800FFF748FD201DFFF714
:102DC00045FDE06A2A6908FA00F11143296100EB28
:102DD000800109EB8100211DFFF77CFDE06A296875
:102DE000C96A8842E2D3C5F81C80DFE70CB1FFF75F
:102DF00085FCAC6944B14646FFF754FF00B1EE6173
:102E0000641EF9D10020A861E86938B1084901279A
:102E100038070860BFF34F8FBFF36F8FFFF786FD52
:102E20003846BDE8F087000020000020BC040020E8
:102E300004ED00E0A0300008BD1B00080000000009
:102E40000000000080000000000000000000000002
:102E5000AC300008E51B0008000000000000000086
:102E6000800000000000000000000000B8300008F2
:102E7000A51B0008FFFF000000000000800000000C
:102E80000000000000000000000000000000000042
:102E90000102030406070809000000000102030400
:102EA00000C1814001C0804101C0804100C181401A
:102EB00001C0804100C1814000C1814001C080410A
:102EC00001C0804100C1814000C1814001C08041FA
:102ED00000C1814001C0804101C0804100C18140EA
:102EE00001C0804100C1814000C1814001C08041DA
:102EF00000C1814001C0804101C0804100C18140CA
:102F000000C1814001C0804101C0804100C18140B9
:102F100001C0804100C1814000C1814001C08041A9
:102F200001C0804100C1814000C1814001C0804199
:102F300000C1814001C0804101C0804100C1814089
:102F400000C1814001C0804101C0804100C1814079
:102F500001C0804100C1814000C1814001C0804169
:102F600000C1814001C0804101C0804100C1814059
:102F700001C0804100C1814000C1814001C0804149
:102F800001C0804100C1814000C1814001C0804139
:102F900000C1814001C0804101C0804100C1814029
:102FA00000C0C101C30302C2C60607C705C5C404E9
:102FB000CC0C0DCD0FCFCE0E0ACACB0BC90908C859
:102FC000D81819D91BDBDA1A1EDEDF1FDD1D1CDC49
:102FD00014D4D515D71716D6D21213D311D1D010B9
:102FE000F03031F133F3F23236F6F737F53534F4A9
:102FF0003CFCFD3DFF3F3EFEFA3A3BFB39F9F83819
:1030000028E8E929EB2B2AEAEE2E2FEF2DEDEC2C08
:10301000E42425E527E7E62622E2E323E12120E078
:10302000A06061A163A3A26266A6A767A56564A468
:103030006CACAD6DAF6F6EAEAA6A6BAB69A9A868D8
:1030400078B8B979BB7B7ABABE7E7FBF7DBDBC7CC8
:10305000B47475B577B7B67672B2B373B17170B038
:103060005090915193535292965657975595945428
:103070009C5C5D9D5F9F9E5E5A9A9B5B9959589898
:10308000884849894B8B8A4A4E8E8F4F8D4D4C8C88
:1030900044848545874746868242438341818040F8
:1030A0004C45445F5461736B000000005057525F01
:1030B0005461736B00000000424F4F545F546173C2
:1030C0006B000000E4300008000000209C000000BD
:1030D00084210008803100089C0000204C4500003D
:1030E0009421000800000000000000000000000023
:1030F00000000000010000001000000000000000BF
:103100000024F400000000000000000000000000A7
:1031100000000000000000000000000000000000AF
:10312000000000000000000000000000000000009F
:10313000000000000000000000000000000000008F
:10314000000000000000000000000000000000007F
:10315000000000000000000000000000000000006F
:1031600000000000AAAAAAAA0000000001000200B4
:10317000030004000500060007000800000000002E
:040000050800018965
:00000001FF
